:400000000010002011000000C5050000C505000008B500F0F1FAC04638B5144C23688025ED022B432360302000F05CFB104A114B1A601022104B1A601032104B1A60802269
:4000400012060F4B1A6025600E4A0F4B1A600F4A0F4B1A6009200F4900F028FB092000F019FB00220C4B1A6038BDC04600010B400600008004010B400C0202402002024031
:4000800008010B402200008000000240BF12008040000240F50800000C020B4010B572B6002410E01F4863001A195200821891881B195B001A5AC31858880004104300F0D7
:4000C000E3FA0134E4B2012CECD999231B04164A1360EE210902154A1160154A1360154A1360154B197802220A431A70134802783C218A4328390A430270197816220A4309
:400100001A7020230E4A1360C42189020D4A11600D4A1360D82212010C4B1A60FFF77CFF10BDC04648420000000001400C00014000500F4030500F4000700F4001700F40FE
:400140000000044008000440180004400803044010B5064C2378002B07D1054B002B02D0044800E000BF0123237010BD5001002000000000FC2F000008B5084B002B03D029
:400180000748084900E000BF07480368002B00D108BD064B002BFBD09847F9E700000000FC2F000054010020C800002000000000F0B557464E464546E0B48CB008AE354F8C
:4001C000301C391C102202F009FB04AD391C1031281C102202F002FB391C20316846102202F0FCFA2C4B30229446BC4462461A602A4F30229246BA4452465A6000202849D3
:400200009860D960C8221A74373291465A747F2290469A741A1C3432311CC1C9C1C20968116062469A645246DA6400201D4918655965802158229954013249469954013283
:40024000414699541A1C7C32291C61C961C2096811609022614699500432514699501A1C983200201049106051601822A0215A5401315A548A3241469954C4336A4613CAE3
:4002800013C312681A600CB01CBC90469946A246F0BDC04608300000E80100200840000000004E4000005E4000408F40F0B54F4680B482B0002538E0EC006419E4001E4B39
:4002C0001C19A068E16800221C4B01F0EBF800221B4B00F0C3FD00F06DFDA06100266661237C0193181C0021164A002300F038FD154B1F78BB0DBA0200F012FD28218946D9
:40030000A144A062381C0021104A112300F028FD019A002300F004FD0D4A002300F000FD606226624B461E710135022DC4D902B004BC9146F0BDC046E80100200000F04106
:400340000070E74000F22B00C40200200010111180BB0000F8B500F033FB00F0F9FB62B6FFF726FF78228B4B1A708B4A8B4B1A60FFF79CFF00F09EFB002600E1884A136807
:4003800001331360854A1268934214D3854A1368013313600022824B1A600AE0D3009B18DB008149CB18002159611962283319710132022AF2D900248FE07A4B1A680F23CE
:4003C0001340E2001219D20077498A18D31830331B79002B06D1E3001B19DB00CB180022DA6179E0E3001B19DB006F4AD31828331B79002B08D1E3001B19DB00D3181A6A10
:40040000596A8C4662441A62654B1A68E3001B19DB006549CB189B6A013B9A4206D1E3001B19DB00CB18283301221A71E3001B19DB005D4AD3181A6A520E920059688A58E1
:400440001A63012C16D0002C02D0022C24D034E05548E3001919C90041181B19DB001D588B694F69BC4663444B619B0D9B00EB58CB6122E04C48E3001919C90041181B19AC
:40048000DB001D588B694F69BC4663444B619B0D9B00EB58CB6110E04348E3001919C90041181B19DB001D588B694F69BC4663444B619B0D9B00EB58CB61E3001B19DB005E
:4004C000394DED18EB69D917D317E86900F048FC0904000C0843E8610134022C00D86CE7002700252AE0EC006319DB002E4CE418E369D9172B4B1A680F231340E31830335D
:400500001A791204D317E06900F02AFC0904000C0843C117627C1204D31700F021FC0904000C0843C117030C090419430004FF221204002300F0D0FB3F180135022DD2D96E
:400540001A4B9F4203DC1A4B9F4203DB03E080277F0200E0164F80235B02F818C117154A002300F0FDFB0A040E4C04341214201C114902F045F9201C00F088FA01360F4BC5
:400580009E4200D8FAE600F095FA0D4800F07EFAFEE7C046C402002070170000C0020020CC0000206C010020E8010020FFFF00000000FFFF0000FF07384200007FBB0000F5
:4005C00040420000FEE7C04608B5031C084A1068C318084A9A1A802A02DC054A136005E002F0D0F80C2303600120404208BDC046D0000020D002002070B50F4E0F4D13E06B
:4006000029686B68AC68002202E001C901C30432A242FAD1E868002202E0002102C304328242FAD11035013E002EE9D102F0B0F8FFF790FEFEE7C0460100000060430000B3
:4006400008B500230AE0032B03D89A000A49505800E00A4899000A4A885001332F2BF2D9FFF71CFD0022074B1A608022D205116801230B43136008BD00000000C50500005F
:4006800000000020C000002008B50A1C002102F0AEF808BD1F2318401E3B8340181C014B1860704700E100E001BE704738B5041C0D1C1F2802D90020FFF7F6FFA400034BE8
:4006C0009C4664442068256038BDC0464000002008B5034B1B7A584300F04AFA08BDC046D4000020F0B557464E46C0B483B0041C00F048FA0190E71E2D2F74D83F4B1B78B0
:40070000DBB2A34208D33E4B1B78DBB29A463D4B1B78DBB2994631E03B4B1B78DBB2A34208D33A4B1B78DBB29A46394B1B78DBB2994623E0374B1B78DBB2A34208D3364BF7
:400740001B78DBB29A46354B1B78DBB2994615E0334B1B78DBB2A34208D3324B1B78DBB29A46314B1B78DBB2994607E02F4B1B78DBB29A462E4B1B78DBB299462D4BDE5D23
:400780002F2E09D92A2C07D919222B4B1A60052000F0EEF9192503E0274B1D683F231D40AE4206D2234BDA5D234B1A60052000F0DFF91F4B9C4664442378DBB21F4A13608C
:4007C0001F4B52461A601F4B4A461A600520FFF77FFFAE420AD9174BDA5D174B1A60052000F0C6F902E00020FFF75EFF019800F0CDF903B00CBC91469A46F0BDC0F1FF0F12
:40080000C1F1FF0FC2F1FF0FC3F1FF0FC4F1FF0FC5F1FF0FC6F1FF0FC7F1FF0FC8F1FF0FC9F1FF0FCAF1FF0FCBF1FF0FCCF1FF0FCDF1FF0F544200002CFF0B4028FF0B402C
:400840001CFF0B4020FF0B40034B1868C0231B02184000D00120704700010B4008B500F091F9044A1368C02109020B43136000F08DF908BD00010B4010B500F083F90849D8
:400880000A68084B1A408024E40122430A600A6813408022120213430B6000F077F910BD00010B40FF3FFFFF70B5061C00F06AF9041CFFF7C9FF002803D0FFF7DDFF012565
:4008C00000E000250848331C0340084A106808490840184310601368012D01D1FFF7BEFF201C00F053F970BD0404040010020B40FBFBFBFF10B5244B1B685B0715D5234B46
:400900001B685B070ED5224B9969042001401F4C22688A4322609A6982439A61DB68002B00D098470420FFF7BFFF174B1B685B0518D5164B1B685B0510D5154B99698022C0
:40094000D2001140114802688A4302609969114A0A409A611B69002B00D098478020C000FFF7A2FF084B1B685B030CD5074B1B685B0304D5064B5B69002B00D098478020BB
:40098000C002FFF791FF10BD10020B40E4000020C0010020FFFBFFFF08B500F069F808BD08B500F01DF808BD08B5044A1368802109060B431360FFF7EFFF08BD00000740A7
:4009C00008B5064B1B78002B04D1FFF7E9FF0122024B1A70FFF7E8FF08BDC046DC01002010B5124A124B1A600023124A13600121114A1160114A1248026007241148046002
:400A0000114803601148016011490A60114A1360114A1360114A1360114A1360114A1360114A1360114A136010BDC0460B0000020000074040000740480007400700008016
:400A4000000307400403074010030740440007400002074004020740880E0740C80E0740480F0740080F0740C80F0740880F0740044A1168044B0B40902109040B43136091
:400A80007047C04600000140FFFF0FFF38B5051C002402E000F080F80134285D0028F9D138BDC0460004000C014B18607047C04608010540024B18680004000C7047C04690
:400AC000080105400004000C014B18607047C0461401054038B5041C0D1C00F053F8AC40024B1C6000F052F838BDC0460800054008B500F047F8064A116801230B4313607B
:400B000000F044F801201821FFF7E4FF08BDC04600000540014B18607047C0463801054008B580229204074B1A600C22064B1A600120FFF7EFFF0548FFF7C4FF0020FFF76C
:400B4000B1FF08BD0001054024010540FFFF000008B5064B1B78002B04D1FFF7E1FF0122024B1A70FFF7C4FF08BDC046DD0100200230800804D0C0460138FDD1C046C046B8
:400B8000C0467047EFF3108072B6704780F310887047C046C046C046044B1B680F221340082BF9D0024B18607047C0460802074040020740002243088B4274D303098B424B
:400BC0005FD3030A8B4244D3030B8B4228D3030C8B420DD3FF22090212BA030C8B4202D31212090265D0030B8B4219D300E0090AC30B8B4201D3CB03C01A5241830B8B4274
:400C000001D38B03C01A5241430B8B4201D34B03C01A5241030B8B4201D30B03C01A5241C30A8B4201D3CB02C01A5241830A8B4201D38B02C01A5241430A8B4201D34B0206
:400C4000C01A5241030A8B4201D30B02C01A5241CDD2C3098B4201D3CB01C01A524183098B4201D38B01C01A524143098B4201D34B01C01A524103098B4201D30B01C01A3B
:400C80005241C3088B4201D3CB00C01A524183088B4201D38B00C01A524143088B4201D34B00C01A5241411A00D20146524110467047FFE701B5002000F00CF802BDC046AC
:400CC0000029F7D003B5FFF775FF0EBC4243891A1847C0467047C046002B15D1002A13D1002906DB01DC002806D00020C043410802E080210906002007B4024801A14018AD
:400D0000029003BDD1FFFFFF03B4684601B5029800F06EF8019B9E4602B00CBC7047C046002B11D1002A0FD1002900D1002802D00021C943081C07B4024802A140180290E3
:400D400003BDC04691FFFFFF03B4684601B5029800F06AF8019B9E4602B00CBC7047C046F0B54F46464605042D0C2C1CC0B41704160C3F0C9946030C7C4375435F43734358
:400D80007D19260CAD199C46AF4203D980235B029846C4444B465143434324042E0C240C2D0466442C1959188919201C0CBC90469946F0BD38B500220C4B041C0D1C01F09A
:400DC000EFF9002804D1201C291C01F07FF938BD064B0022201C291C00F0FEFD01F076F980231B069C466044F1E7C0460000E041F0B583B0161C1F1C0090019101F0F8F95E
:400E0000041C0D1C221C2B1C301C391CFFF7A8FF009A019B121A8B410899201C0A604B60291C03B0F0BDC046F0B5141C83B01D1C0090019101F0D4FA221C2B1C061C0F1CE7
:400E4000FFF78EFF009A019B121A8B410899301C0A604B60391C03B0F0BDC046F0B55F4656464D464446F0B40F0387B098464D003B0BCC0F061C924681469B466D0D019417
:400E80006BD0664B9D4235D080275B467F031F43F3009946624BFF00400F9C4607430023BB46002665440093424617035000D20F53463F0B400D904600D172E0574A904248
:400EC00067D080235B031F435346554A5B0FFF001F43944653460021DB0060444246624092462D1A0E430F2E00D9A1E04D48B600805987465B461E4300D076E000239B46F4
:400F00009946023308260093CEE799464346BB4601930091009B022B6BD1019B9A46002153460122002789461A403C4B00213F030C0D24053F0B27433B4C1B0527401F439C
:400F40007F00D2077F0817434846391C07B03CBC90469946A246AB46F0BD03433ED05B46002B00D19CE1584601F024F92823311C1B1A021C5F46D940083A97400B1C964092
:400F80003B439B46B1460023284D00262D1A00938AE7524603213A43A0D10027002302219CE752463A4315D0002F00D185E1381C01F000F9021C28215046891A131CC840C3
:400FC0005146083B99409F400B1C074317480021801A83E70027002301217FE700239B4699460133042600935EE703230C2600935AE7032B00D13CE2012B00D0BFE11A1C64
:40100000019B1A4000210023002789468EE700238027994600223F03004B87E7FF07000001FCFFFF84420000FFFF0F800DFCFFFFBB4500D951E100D14CE14A46039200229A
:401040005C469046013D180E3F0238431B020193030C994603041B0C4946061C201C1F1C0093FFF7A7FD021C7A4302904946201C171CFFF725FE039B09041B0C19438F4233
:401080000CD9029B8919013B8E4200D952E18F4200D84FE1029B8919023B0293CC1B201C4946FFF787FD009F834647434946201CFFF706FE039A0B041404240C23439F42EC
:4010C0000DD95A469B19013A9E4200D930E19F4200D82DE10222524294469B19E344029ADB1B17045A463A439346019C170C220C101C04925A4611042204120C141C090CEC
:401100007C4305924A43414347436118100C09188C4203D980204002844667440C0C12040804120C3C198118A34200D2E5E000D1DFE01F1B43465C1AA04592415242BF1A57
:40114000B74200D10EE1381C4946FFF733FD009B029043434946381C9846FFF7B1FD230C0F041F43B8450CD9029BBF19013BBE4200D9FBE0B84500D8F8E0029BBF19023B4B
:4011800002934346FF1A4946381CFFF713FD009B039043434946381C9846FFF791FD24040904240C214388450CD9039B8919013B8E4200D9DCE0884500D8D9E0039B89191C
:4011C000023B03934346C91A029B039A1B04059C1A43100C13049146221C049F1B0C5A4344437B437843E318170CDB199C4203D980246402A44660441C0C12041B04120CCB
:4012000000199B18814200D296E000D1FCE04A4601231A4391469B4BEB18002B00DC99E04A4652070AD00F2249460A40042A05D00431494592418946524293445A46D201C6
:4012400006D55A46904B1A4080239346DB00EB188E4A934200DD62E64A465946D208490711435A4689465702514601225B053F0B5B0D0A405AE680205A460003024208D068
:40128000074206D107433F0399463F0B4246804B4CE65F4607433F033F0B221C7C4B45E600F088FF031C2030272800DC5EE6083B9E400023B346994665E6504600F07AFF6E
:4012C000021C2032272A00DC75E657460838874000237BE6994500D2AFE65A46594654084A46C8075208024303924A46D2079046A9E60027884500D31CE7019F5A46BC4681
:40130000E044B845BF417F42BF19FF18013ABE4206D2BC425FD800D19FE03F1B934609E7B742FAD1019B4345F3D9371B934601E79346D4E60293B1E64A468919013A8E425E
:4013400018D99146814200D061E7019A9A4200D05DE760E74F4F7F1B382F13DD012253461A404FE601235B42994654E7029308E7039327E788423CD874D0914647E7019B58
:401380009A4648E71F2F44DC434B4A469C465B466544FA40AB4013434A46AA40151C6A1E95415A46FA402B43171C5A0709D00F221A40042A05D01A1D9A429B415B42FF18FC
:4013C000131C3A023ED55346012200211A40002701238946AAE502235B429C46019AE3449446E04490459B415B429B19DF193F1BA0E6019F4A467C00BC42BF417F42BF190E
:40140000023AC91901949CE7002B95D1002201929BE75A46214B5B1BDA40202F27D0204B9C465B466544AB4049460B43591E8B411343072200271A4007D00F2200271A40A1
:40144000042AB8D17A077F023F0BDB0813439946012253461A40002368E54145BBD89346002767E6019C9C42C3D391466DE70023DAE780275B463F031F433F033F0B019A32
:40148000034B53E5FF030000FFFFFFFEFE070000FF07000002FCFFFF1E040000E2FBFFFF3E040000F0B55F4656464D464446F0B4051C061C080387B099464F00030BCC0F20
:4014C00092469B467F0D019467D06C4B9F4236D080205B4640031843C0006B0F1843684B83469C4600239846EE00674400934B4649461D03C90F5B0052462D0B5B0D8946C4
:4015000000D16EE05D498B4264D080205C4940038C4600210543ED00500F0543D20063444846FF187B1C9A46009B604002900B430F2B00D9ACE053489B00C3589F465B4668
:401540001D4300D082E00823009300239B46023300269846CBE7029B01934346022B59D1012400250026019B1C40444B00212D030A0D12052D0B1543434A1B0515401D43B3
:401580006D00E4076D082543301C291C07B03CBC90469946A246AB46F0BD2B434ED05B46002B00D185E1584600F004FE021C2823291C9B1A161C5846D940083EB0400B1CB3
:4015C000B54003439B462E1C0023304F0093BF1A98468CE7514629432ED10025002202219EE75146294323D0002D00D154E1281C00F0E0FD031C28215046C91A1A1CC840DC
:401600005146083A914095400A1C05431F480021C31A85E7032B00D1C2E1012B00D06DE14446019B00251C40E4B2002300269DE700250022012173E7032171E704230093FD
:4016400000239B4601330026984650E70C230093093B98464BE7802500242D030026074B84E74B46AB46161C0193884675E7029BAB46161C019388466FE7C046FF0700000F
:4016800001FCFFFFC4420000FFFF0F800DFCFFFF330C3604360C9C46331C140C1204120C53439846634653439946634663430193331C41466343090C4B445B18994505D991
:4016C000802040028146019949440191190C039141460904090C1B045B1804932B0C9846331C2D04290C4B43604600934346654658435E43009B4D431B0C9946AE194E4472
:401700008446B54203D980235B029946CC44350C2B1C0398634484460593009B36041B041B0CF3189C446046039058460504060C280C84465043351C81466046654344437B
:401740004846000C8346724314195C44A24203D98022520293465D44220CAD184A461204120C24044046A41862464A437143464360460096464670438046100C84468844CE
:40178000E044414505D9802149028C46009961440091019803998446614499429B415B4299460598434684461204120C1B049B1863449C46AB4683429B4140460A19CC4473
:4017C000A2428941E344CC45B6415C46000C8046494276425B426418334398448C428941AB459B4149425B4219430D1C009B4544EE187602E50D2E43B346049B56021E4383
:40180000731E9E415B46D20D324366021643DB010AD50123334076081E435B46DB071E435B465B089B465746634BFB18002B5ADD720709D00F223240042A05D0321DB2428D
:40184000B6417642B344161C5A46D20106D55A465A4B1A4080239346DB00FB18584A934234DD0124029B00251C400026554B7DE680205B460003034208D0054206D105437E
:401880002D032D0B4C46161C4E4B6FE65D4605432D032D0B4B4B69E6504600F08BFC031C2033272B00DCA6E65546083885400022ACE6281C00F07EFC021C2032272A00DCFE
:4018C00075E6083885400026AB467DE65A46F608520716435A4601245502029A5B052D0B5B0D144042E6384DED1B382D0ADD0124029B00251C400026002337E6019B5746CF
:40190000029391E71F2D25DC304B321C9C466744BE405B46BB40371CEA407E1EB74113433B431E1C5B46EB401D1C730709D00F233340042B05D0331DB342B6417642AD1983
:401940001E1C2B0220D50124029B00251C40002601230BE65A461E4BDB1BDA40131C202D1CD01C4A94465A466744BA40171C3E43721E96411E4307230025334007D00F2340
:4019800000253340042BD6D16B076D022D0B0124F6081E43029B1C400023E7E50027E6E780255B4601242D031D43019B2D0323401C1C2D0B034BD9E5FF030000FFFFFFFE9D
:4019C000FE070000FF07000002FCFFFF1E040000E2FBFFFF3E040000F0B54D4644465F465646F0B40E1C111C3203520A470F1743C5001A035800DB0F9946520A4B0F83B076
:401A00001A43CB000193CF4B7400F60F640DB046400D984200D1E8E00123494659400B1C9E4200D1B1E0261A002E00DC1CE1002842D1131C01990B4300D0E6E06B0700D109
:401A40008EE00F232B40042B00D189E02A1DAA42AD418023012641466D427F191B043B400E40151C002B00D183E0B64B01349C4200D116E13A1CB44BED081A405007640581
:401A800052020543120B640D002112030B0D1B056405120B1A436308AC4CF60714401C43640064083443281C211C03B03CBC90469946A246AB46F0BDA24B9C42BED08023EE
:401AC0001B041A43382E00DD03E11F2E00DD3FE12020831B9946131C49468B409C46019B6046F34003430198F2408840011C481E81410B43EB1A9D4280411D1CBA1A4042BC
:401B0000171A3B0200D4A8E07A02560A002E00D1CAE0301C00F04EFB031C083B1F2B00DDCBE02822291C121AD1409E400A1C9D4032439C4200DDC8E01C1B671C1F2F00DD33
:401B4000EDE01F23291C1C1B131CA540A340F9406C1EA541FA4019430D43171C00246DE78023012642461B043B401640002B00D07BE7744BED0878070543FA089C423BD0A4
:401B800012036405120B640D7EE7231A9A46002B00DCA5E0002844D06A48844200D14DE78020000402435346382B00DC1CE1019B1A43511E8A41D1B200224919A9428041AE
:401BC0000D1CD219404217183B0246D55D4B01349C4200D169E101205B4A6B083A4028401843D5070543570828E7131C01990B4300D111E74B4613E72B1C134351D080231E
:401C00001B031A431203120B3EE7013E002E00D080E0691A8D429B41BA1A5B42D71A0D1C6FE7101C019B184300D107E701235B429C46E2445346002B00D002E1019BD2197D
:401C40005919A9429B415B42D7180D1CBCE76346034300D128E1071C65466B0700D0F0E6012643461E4084E7002E00D081E0601C4005400D012800DC07E10199681A84466B
:401C80006545B641B81A7642861B300200D4A1E08C464D1BAC458941D21B4942561A984634E700220025EFE6281C00F083FA2030031C083B1F2B00DC33E7021C283A9540E7
:401CC0002A1C00259C4200DC36E71F4FE41A1740B4E6019B1A43511E8A41D3B2002209E7002B00D001E1601C43055B0D012B00DCB0E0144B984200D11EE1019BD2195919D8
:401D0000A9429B415B42D2184908D5070D435708041C93E60B4B9C4200D0D3E68EE6211C131C1F39CB40191C202F00D18EE03F231C1BA24015436A1E954100270D43002451
:401D40008BE7C046FF070000FFFF7FFFFFFF0F80331C101C203BD840202E79D040239B1B9A40131C019A1343591E8B4100220343C0E6002C53D0C74CA04200D1B0E08024AA
:401D800071428946240427434946382900DDCDE01F2900DD59E120243E1C611A8E408A46B04649462E1CCE405146B4468D4064464646494626436C1EA541CF403543019985
:401DC000D71B8C464D1BAC4592415242BF1A041C984696E663466546334300D096E60026002700240025C4E61F2B61DC2020C31A9B46131C59468B4051469946019BCB407B
:401E00009C464B46604603439C465B46019999406346481E814119435346DA40CDE63C1C2C435DD0F1438946002955D10199D21B8C464D1BAC4589414942571A041C9846FE
:401E40005FE69448844200D0ADE6F7E5002271E7002387E73B1C2B43002C00D0DAE0002B00D113E1131C01990B4300D1E6E54919A9429B41D2195B42D7183B0200D421E160
:401E8000854B0D1C1F40041CD8E5381C2843002C40D1002800D083E0101C0199084303D0171C0D1C9846C9E500260027002560E65046131C2038C340181C5346202B00D109
:401EC000C1E0402351465B1A9A40019911434A1E91410022014370E66E4CA04200D053E7171C019D041C9846A8E5002C28D13C1C2C4300D18AE0DB439A46002B00D082E090
:401F0000019BD2199C4665449D42894149425718041C59E600285BD1101C0199084300D1A4E0171C0D1C98465A4C87E53D436F1EBD410027EDB242E7041C0027002518E623
:401F4000544CA04262D0534680245B429A46240427435346382B00DD8EE01F2B00DD9DE02024E31A9B463B1C59468B40514699462B1CCB409C464B46644623439C465B46C5
:401F80009D4063466C1EA541CF401D43019BBF189C4665449D4292415242BF18041C13E6101C0199084300D148E5681A844685428041BE1A4042301A060200D447E68C4626
:401FC0004D1BAC458941D21B4942571A984635E5101C0199084334D080247807ED08FF0824032843274208D0D608264205D1C90852070A43101C371C9846FF00420F17433C
:40200000C500244C1AE5234CA042A2D1171C019D041C13E5002B35D0131C01990B4310D080247807ED08FF08240328432742E4D0D3082342E1D1C90852070A43101C1F1CFA
:40204000DBE7144CFAE400223FE74C463E1C203CE6404946341C202932D04026761AB7403D436F1EBD4100272543A8E680270026FF03084C00257CE53D436F1EBD41002790
:40208000EDB283E7171C019D024CD7E4171C019DD4E4C046FF070000FFFF7FFF54463B1C203CE3401C1C5346202B0DD0402351465B1A9F403D436F1EBD410027254365E78F
:4020C0000027CDE70D1CC8E50027F3E70B0330B5134C1A0B4B00051C5B0DC90F0020A34210DD104883420EDC80200F4C40030243E41A1F2C0ADD0D48C31ADA40131C48425A
:402100004340581830BD0A4BC818FBE7281CE040084CA44663449A40131C0343EFE7C046FE0300001D0400003304000013040000FFFFFF7FEDFBFFFF8446101C62468C46F2
:40214000191C634600E0C0461FB500F0A9FA002801D40021C8421FBD10B500F0EDF94042013010BD10B500F09BFA002801DB002010BD012010BDC04610B500F091FA00287E
:4021800001DD002010BD012010BDC04610B500F017FA002801DC002010BD012010BDC04610B500F00DFA002801DA002010BD012010BDC0461C2101231B04984201D3000CDA
:4021C00010391B0A984201D3000A08391B09984201D30009043902A2105C40187047C04604030202010101010000000000000000F0B544465F4656464D46F0B41C1C85B018
:40220000002900DAA9E00F1C0021061C8846101C191C002C00DA97E0341C3D1C82468946B94273D870D04946504600F09FFA8346391C301C00F09AFA5B46181A031C8346DB
:40224000203B9C4600D59CE00023002251460092019363469940019151468140019B0091BB4200D983E000D17EE0009A019B341C3D1CA41A9D416346002B00DA9AE0002604
:4022800000270296039701369E400396012686400296002800D171E00099019AD30799464B464E081E435708002301220CE0AF4201D1A6420AD8A41BBD4124196D41013814
:4022C000A4185D41002806D0AF42F0D9013824196D410028F8D12022029E039F5B46524236196F4199185AD4281CC8402C1C5B46DC40002968DB041C8C40231C59468840D1
:40230000021CB61A9F4103E0B0428CD90026002741464B1E9941002300910193009A019B002554429D41331C6340181C3B1C6B40191C009B019CC018614105B03CBC9046D5
:402340009946A246AB46F0BD4346DB430C1C9846131C00215842A1415EE7002746428F4101214942884652E7B14200D87DE70026002702960397002800D08DE7029E039FAB
:40238000C6E720215346091ACB400022191C0023009201934B4683400B4301935CE75A4620239B1A2A1C9A40201C131C5A46D04018439BE720260027331A0026029603978D
:4023C0000127DF40039761E75B4620215D46C91A031CAC40CB40191C231C0B438EE7C046F0B545464E465746E0B4041C82B00D1C914698468B4262D85FD04146484600F099
:40240000B5F9291C061C201C00F0B0F92023311A5B428A46C81865D44B4683401F1C4B468B401E1CAF4258D855D0A41BBD41002800DA77E0002200230092019301328240BD
:40244000019201238B40009300293CD0FB079846404672087B080243012600270CE0AB4201D1A2420AD8A41A9D4124196D410139A4197D41002906D0AB42F0D90139241943
:402480006D410029F8D120220098019953465242001969419E183AD42F1CF7405346DD40002E29DB3C1CB440231C5446A7403A1C801A99410090019105E082429DD90023B0
:4024C0000024009301940098019902B01CBC90469946A246F0BDA342A7D90022002300920193B1E720224B46521AD3401A1C43468B401F1C174392E7534620245646E41AC1
:402500003B1CB540E3401C1C2B1C2343CDE7524620239B1A2A1C9A40271C131C5246D7401F43BBE720230022581A0023009201930132C240019284E7F0B55F464D46444604
:402540005646F0B41F035C00DB0F99461B4B0E034D00C90F8446360B6D0D8B4690463F0B640D9D420CD0154B9C4210D00123A54214D0181C3CBC90469946A246AB46F0BD22
:40258000311C01230143F4D10C4B9C42EED13A430123002AEDD10123A542EAD1BE42E8D1C445E6D1CB4506D0002DE2D13043031C581E8341DDE70023DBE7C046FF0700009E
:4025C000F0B5574645464E46E0B40F034E00C90F8A4632491D035C0084463F0B760D90462D0B640DDB0F8E420FD08C4239D0002E10D13843414241418946002C27D12A4372
:4026000025D1002000290ED108E0391C01432ED1B44226D0002C0BD09A450DD05346594201231943081C1CBC90469946A246F0BD2A43F3D09A45F1D1A642EFDC1ADA504645
:4026400041424841012341421943081CEBE74A46002AE1D058425841012241421143081CE1E7291C114302D1002EC2D0D4E702204042D8E7AF42D1D809D00020AF42D2D25F
:40268000504641424841012340421843CBE7C445C4D80020C445F3D3C5E7C046FF070000F0B55F464D46444656468046F0B4061C0803000B84462C484C001F035D00C90FF3
:4026C000640D8B4691463F0B6D0DDB0F844212D0854225D0002C14D161460E4370424641002D35D0002E21D058425841012143420B43181C0EE06146022031430AD1A542D3
:402700000ED0002D12D13A4310D15B46594201231943081C3CBC90469946A246AB46F0BD391C02201143F5D1002CD5D09B45ECD1AC42EADC05DBBC45E7D80FD00020BC45E7
:40274000E8D2584641424841414201200843E1E73A43C7D10020002EDCD1D6E7C845D4D80020C845EDD3D5E7FF07000010B5002903D1FFF71FFD203002E0081CFFF71AFDD2
:4027800010BDC046014B18687047C046480100200E4B70B500251E1C0D4CE41AA410A54204D0AB00F35898470135F8E701F0C6FD084B00251E1C084CE41AA410A54204D0A0
:4027C000AB00F35898470135F8E770BD48430000484300004843000050430000002310B5934203D0CC5CC4540133F9E710BD031C8218934202D019700133FAE77047000028
:402800000EB410B59DB002A9029008610B48822488604861012040421FABC881084804CBA400006801938C8100F00AF90023029A13701DB010BC08BC03B01847FFFFFF7FF2
:402840004801002030B500293ED004390B68002B00DAC9181D4A1368141C002B02D14B60116031E099420DD208680A189A4203D11368C3180B6053684B60216024E08A428C
:4028800003D8131C5A68002AF9D11D685C198C420BD10968691858181960904214D110685268091819605A600EE08C4202D90C23036009E008680C18944203D11468526816
:4028C000001908604A60596030BDC046E4010020032370B5CC1C9C430834051C0C2C01D20C2405E0002C03DA0C2300202B6042E08C42F9D3204A1368101C191C002913D07C
:402900000A68121B0DD40B2A02D90A608B181FE08B4202D15A6802601BE04A685A600B1C17E00B1C4968E9E7144E3368002B03D1281C00F001FB3060281C211C00F0FCFAE7
:40294000031C421CD0D00322C61C964386420AD11C60181C07210B301A1D8843821A0AD05142995007E0311A281C00F0E5FA431CBAD0331CECE770BDE4010020E00100202D
:40298000F0B58E6885B0071C0C1C03920193B34245D390238A89DB001A423DD003250969236801985B1A029363695D43EB0F5D19029B6D1001331B189D4200D21D1C381C59
:4029C00053050FD5291CFFF783FF061E13D0029A2169FFF703FFA289184B134080221343A38111E02A1C00F0D8FA061E0CD1381C2169FFF727FF0C23402201203B60A3894F
:402A000040421343A38117E0029B2661F61826606561019EED1AA560019BB34200D2019E321C2068039900F0A4FA0020A3689B1BA36023689E19266005B0F0BD7FFBFFFFF2
:402A4000F0B59FB0029005938B890E1C171C1B0610D50B69002B0DD14021FFF739FF30603061002804D10C23029A01381360D0E040237361002306AD6B6120336B76103320
:402A8000AB763C1C2378002B03D1E31B049312D003E0252BF9D00134F4E7049B0298311C3A1CFFF76DFF431C00D1ACE06A69049B944663446B612378002B00D1A3E001228A
:402AC000002352426A6002A95432521801342B60EB60AB601370AB654F4F2178381C052200F03CFA002808D0C01B01278740381C2B68013418432860EEE72B68DA0604D54F
:402B00005322202102A8121811701A0704D553222B2102A81218117022782A2A01D0099B0EE0059A111D12680591002A01DB099204E05242EA60022213432B60013409E0C6
:402B40002278303A092A04D80A214B4301349B18F6E7099323782E2B18D163782A2B09D1059B02341A1D1B680592002B0DDA01235B420AE0002301342278303A092A04D8F2
:402B80000A214B4301349B18F6E70793234F2178381C032200F0E2F9002807D0C01B40278740381C2B6801341843286021781C480622671C297600F0D1F9002812D0194B38
:402BC000002B06D10722059B073393430833059314E005AB00930298291C321C124B00E000BF07E005AB00930298291C321C0E4B00F08AF80390039B013304D06B69039AFB
:402C00009B186B613DE7B3890B985B0601D5012040421FB0F0BDC046064300000C430000104300000000000081290000F7B5171C01930A698B6800900C1C934200DA131CB2
:402C4000221C3B6043321278002A01D001333B6023689B0602D53B6802333B60062523681D401ED0231C43331B785A1E9341226892061CD53020E1184031C870211C5A1CEF
:402C800045310978A21840320233D1700FE0221C0123009801991932089EB047431C0ED00135E3683A689B1A9D42F0DBDAE7221C009801994332089DA847431C02D10120C4
:402CC000404220E006232068E1683A6803400025042B03D18D1AEB43DB171D40A3682269934201DD9B1AED180027AF420ADA221C0123009801991A32089EB047431CDED09E
:402D00000137F2E70020FEBDF0B58BB006920A1C43320793059004920A7E0C1C109B6E2A00D1A8E011D8632A22D009D8002A00D1B2E0582A00D0C2E045310A707C4A4FE0D4
:402D4000642A1DD0692A1BD0B9E0732A00D1A7E009D86F2A29D0702A00D0B0E0202209680A43226037E0752A1FD0782A33D0A6E00E1C1A684236111D196013683370A1E0A3
:402D800021681A68080606D4490604D5111D19600023D55E02E0111D19601568002D3BDA2D23049A6D42137036E021681A68080606D4490604D51568111D1960ADB202E0FD
:402DC000111D196015685A4B227E03930A276F2A1DD108271BE0221C782145321170554A19680392081D226818600D68100602D4500600D5ADB2D30702D520231A43226089
:402E00001027002D03D1202322689A432260231C002243331A7002E00A27454B03936368A360002B03DB0422216891432160002D02D1049E002B0ED0049E281C391CFDF7DF
:402E40003FFF039B013E5B5C281C3370391CFDF7B1FE051EF1D1082F09D12368DB0706D563682269934202DC3023013E3370049B9B1B23612BE009681A68080607D4490616
:402E800005D5111D19601368A28A1A8004E0111D1960136862691A600023049E236116E01A68111D196016680021301C626800F055F8002801D0801B6060636803E0261C67
:402EC00042363270012323610023049A1370079B05980093211C069B09AAFFF7A7FE431C02D10120404221E0236905980699321C079DA847431CF4D023689B0705D4099B82
:402F0000E068984212DA181C10E00025E368099A9B1A9D42F3DA221C0123059806991932079EB047431CDCD00135EFE70BB0F0BD174300002843000038B50023064C051C9F
:402F4000081C2360FDF740FB431C03D12368002B00D02B6038BDC046C8020020C9B28218904204D003788B4202D00130F8E70020704710B5814208D28B18984205D29B1A2B
:402F8000013A09D3995C8154FAE70023934203D0CC5CC4540133F9E710BDF8B5061C0C1C151C002904D1111CFFF792FC041C18E0002A03D1FFF746FC2C1C12E000F013F809
:402FC000A8420ED2301C291CFFF782FC071E07D0211C2A1CFFF702FC301C211CFFF732FC3C1C201CF8BD0B1F1A68101F002A04DA891804390B68D01804387047000000008A
:40300000F0F1FF7F01000000010000000100000001000000010001000000000001000000000000000100000001010101000101010001010100010101000000009201000089
:4030400024030000B604000048060000DA0700006C090000FE0A00008F0C0000210E0000B20F000044110000D512000066140000F61500008717000017190000A71A0000E8
:40308000371C0000C71D0000561F0000E52000007322000002240000902500001D270000AA280000372A0000C42B0000502D0000DB2E000066300000F13100007B3300009D
:4030C000053500008E360000173800009F390000263B0000AD3C0000333E0000B93F00003E410000C342000047440000CA4500004D470000CE480000504A0000D04B00007B
:40310000504D0000CF4E00004D500000CA51000047530000C35400003E560000B857000031590000AA5A0000225C0000985D00000E5F000083600000F76100006A63000053
:40314000DC6400004D660000BD6700002D6900009B6A0000086C0000746D0000DF6E000049700000B17100001973000080740000E57500004A770000AD7800000F7A0000D7
:40318000707B0000D07C00002E7E00008B7F0000E7800000428200009C830000F48400004B860000A1870000F5880000488A00009A8B0000EA8C0000398E0000878F0000A0
:4031C000D39000001E92000068930000B0940000F69500003C9700007F980000C2990000029B0000429C00007F9D0000BC9E0000F69F00002FA1000067A200009DA300000E
:40320000D2A4000005A6000036A7000066A8000094A90000C0AA0000EBAB000014AD00003BAE000061AF000085B00000A8B10000C8B20000E7B3000004B5000020B600005A
:403240003AB7000052B8000068B900007CBA00008FBB0000A0BC0000AEBD0000BCBE0000C7BF0000D0C00000D8C10000DEC20000E2C30000E3C40000E4C50000E2C6000085
:40328000DEC70000D8C80000D1C90000C7CA0000BBCB0000AECC00009FCD00008DCE00007ACF000064D000004DD1000033D2000018D30000FAD30000DBD40000B9D5000042
:4032C00095D6000070D7000048D800001ED90000F2D90000C4DA000094DB000061DC00002DDD0000F6DD0000BEDE000083DF000046E0000006E10000C5E1000082E20000FE
:403300003CE30000F4E30000AAE400005EE500000FE60000BEE600006BE7000016E80000BFE8000065E9000009EA0000ABEA00004BEB0000E8EB000083EC00001CED0000DF
:40334000B2ED000046EE0000D8EE000068EF0000F5EF000080F0000009F100008FF1000013F2000094F2000014F3000091F300000BF4000084F40000FAF400006DF50000B2
:40338000DEF500004DF60000BAF6000024F700008BF70000F1F7000053F80000B4F8000012F900006EF90000C7F900001EFA000073FA0000C5FA000014FB000061FB0000EA
:4033C000ACFB0000F5FB00003BFC00007EFC0000BFFC0000FEFC00003AFD000074FD0000ABFD0000E0FD000013FE000043FE000070FE00009BFE0000C4FE0000EAFE0000A0
:403400000EFF00002FFF00004EFF00006AFF000084FF00009CFF0000B1FF0000C3FF0000D3FF0000E1FF0000ECFF0000F4FF0000FBFF0000FEFF000000000100FEFF000086
:40344000FBFF0000F4FF0000ECFF0000E1FF0000D3FF0000C3FF0000B1FF00009CFF000084FF00006AFF00004EFF00002FFF00000EFF0000EAFE0000C4FE00009BFE0000FE
:4034800070FE000043FE000013FE0000E0FD0000ABFD000074FD00003AFD0000FEFC0000BFFC00007EFC00003BFC0000F5FB0000ACFB000061FB000014FB0000C5FA0000F8
:4034C00073FA00001EFA0000C7F900006EF9000012F90000B4F8000053F80000F1F700008BF7000024F70000BAF600004DF60000DEF500006DF50000FAF4000084F400000B
:403500000BF4000091F3000014F3000094F2000013F200008FF1000009F1000080F00000F5EF000068EF0000D8EE000046EE0000B2ED00001CED000083EC0000E8EB00006D
:403540004BEB0000ABEA000009EA000065E90000BFE8000016E800006BE70000BEE600000FE600005EE50000AAE40000F4E300003CE3000082E20000C5E1000006E10000F7
:4035800046E0000083DF0000BEDE0000F6DD00002DDD000061DC000094DB0000C4DA0000F2D900001ED9000048D8000070D7000095D60000B9D50000DBD40000FAD3000022
:4035C00018D3000033D200004DD1000064D000007ACF00008DCE00009FCD0000AECC0000BBCB0000C7CA0000D1C90000D8C80000DEC70000E2C60000E4C50000E3C4000011
:40360000E2C30000DEC20000D8C10000D0C00000C7BF0000BCBE0000AEBD0000A0BC00008FBB00007CBA000068B9000052B800003AB7000020B6000004B50000E7B3000090
:40364000C8B20000A8B1000085B0000061AF00003BAE000014AD0000EBAB0000C0AA000094A9000066A8000036A7000005A60000D2A400009DA3000067A200002FA1000026
:40368000F69F0000BC9E00007F9D0000429C0000029B0000C29900007F9800003C970000F6950000B0940000689300001E920000D3900000878F0000398E0000EA8C00000F
:4036C0009A8B0000488A0000F5880000A18700004B860000F48400009C83000042820000E78000008B7F00002E7E0000D07C0000707B00000F7A0000AD7800004A7700003F
:40370000E57500008074000019730000B171000049700000DF6E0000746D0000086C00009B6A00002D690000BD6700004D660000DC6400006A630000F76100008360000078
:403740000E5F0000985D0000225C0000AA5A000031590000B85700003E560000C354000047530000CA5100004D500000CF4E0000504D0000D04B0000504A0000CE4800004A
:403780004D470000CA45000047440000C34200003E410000B93F0000333E0000AD3C0000263B00009F390000173800008E360000053500007B330000F13100006630000019
:4037C000DB2E0000502D0000C42B0000372A0000AA2800001D270000902500000224000073220000E5200000561F0000C71D0000371C0000A71A000017190000871700002D
:40380000F615000066140000D512000044110000B20F0000210E00008F0C0000FE0A00006C090000DA07000048060000B60400002403000092010000000000006EFEFFFFB2
:40384000DCFCFFFF4AFBFFFFB8F9FFFF26F8FFFF94F6FFFF02F5FFFF71F3FFFFDFF1FFFF4EF0FFFFBCEEFFFF2BEDFFFF9AEBFFFF0AEAFFFF79E8FFFFE9E6FFFF59E5FFFFE0
:40388000C9E3FFFF39E2FFFFAAE0FFFF1BDFFFFF8DDDFFFFFEDBFFFF70DAFFFFE3D8FFFF56D7FFFFC9D5FFFF3CD4FFFFB0D2FFFF25D1FFFF9ACFFFFF0FCEFFFF85CCFFFFAB
:4038C000FBCAFFFF72C9FFFFE9C7FFFF61C6FFFFDAC4FFFF53C3FFFFCDC1FFFF47C0FFFFC2BEFFFF3DBDFFFFB9BBFFFF36BAFFFFB3B8FFFF32B7FFFFB0B5FFFF30B4FFFF4D
:40390000B0B2FFFF31B1FFFFB3AFFFFF36AEFFFFB9ACFFFF3DABFFFFC2A9FFFF48A8FFFFCFA6FFFF56A5FFFFDEA3FFFF68A2FFFFF2A0FFFF7D9FFFFF099EFFFF969CFFFFF3
:40394000249BFFFFB399FFFF4398FFFFD396FFFF6595FFFFF893FFFF8C92FFFF2191FFFFB78FFFFF4F8EFFFFE78CFFFF808BFFFF1B8AFFFFB688FFFF5387FFFFF185FFFFEF
:403980009084FFFF3083FFFFD281FFFF7580FFFF197FFFFFBE7DFFFF647CFFFF0C7BFFFFB579FFFF5F78FFFF0B77FFFFB875FFFF6674FFFF1673FFFFC771FFFF7970FFFFA6
:4039C0002D6FFFFFE26DFFFF986CFFFF506BFFFF0A6AFFFFC468FFFF8167FFFF3E66FFFFFE64FFFFBE63FFFF8162FFFF4461FFFF0A60FFFFD15EFFFF995DFFFF635CFFFFB8
:403A00002E5BFFFFFB59FFFFCA58FFFF9A57FFFF6C56FFFF4055FFFF1554FFFFEC52FFFFC551FFFF9F50FFFF7B4FFFFF584EFFFF384DFFFF194CFFFFFC4AFFFFE049FFFFEA
:403A4000C648FFFFAE47FFFF9846FFFF8445FFFF7144FFFF6043FFFF5242FFFF4441FFFF3940FFFF303FFFFF283EFFFF223DFFFF1E3CFFFF1D3BFFFF1C3AFFFF1E39FFFF3F
:403A80002238FFFF2837FFFF2F36FFFF3935FFFF4534FFFF5233FFFF6132FFFF7331FFFF8630FFFF9C2FFFFFB32EFFFFCD2DFFFFE82CFFFF062CFFFF252BFFFF472AFFFF02
:403AC0006B29FFFF9028FFFFB827FFFFE226FFFF0E26FFFF3C25FFFF6C24FFFF9F23FFFFD322FFFF0A22FFFF4221FFFF7D20FFFFBA1FFFFFFA1EFFFF3B1EFFFF7E1DFFFFC6
:403B0000C41CFFFF0C1CFFFF561BFFFFA21AFFFFF119FFFF4219FFFF9518FFFFEA17FFFF4117FFFF9B16FFFFF715FFFF5515FFFFB514FFFF1814FFFF7D13FFFFE412FFFF63
:403B40004E12FFFFBA11FFFF2811FFFF9810FFFF0B10FFFF800FFFFFF70EFFFF710EFFFFED0DFFFF6C0DFFFFEC0CFFFF6F0CFFFFF50BFFFF7C0BFFFF060BFFFF930AFFFF10
:403B8000220AFFFFB309FFFF4609FFFFDC08FFFF7508FFFF0F08FFFFAD07FFFF4C07FFFFEE06FFFF9206FFFF3906FFFFE205FFFF8D05FFFF3B05FFFFEC04FFFF9F04FFFF58
:403BC0005404FFFF0B04FFFFC503FFFF8203FFFF4103FFFF0203FFFFC602FFFF8C02FFFF5502FFFF2002FFFFED01FFFFBD01FFFF9001FFFF6501FFFF3C01FFFF1601FFFF22
:403C0000F200FFFFD100FFFFB200FFFF9600FFFF7C00FFFF6400FFFF4F00FFFF3D00FFFF2D00FFFF1F00FFFF1400FFFF0C00FFFF0500FFFF0200FFFF0000FFFF0200FFFFB8
:403C40000500FFFF0C00FFFF1400FFFF1F00FFFF2D00FFFF3D00FFFF4F00FFFF6400FFFF7C00FFFF9600FFFFB200FFFFD100FFFFF200FFFF1601FFFF3C01FFFF6501FFFFC2
:403C80009001FFFFBD01FFFFED01FFFF2002FFFF5502FFFF8C02FFFFC602FFFF0203FFFF4103FFFF8203FFFFC503FFFF0B04FFFF5404FFFF9F04FFFFEC04FFFF3B05FFFF48
:403CC0008D05FFFFE205FFFF3906FFFF9206FFFFEE06FFFF4C07FFFFAD07FFFF0F08FFFF7508FFFFDC08FFFF4609FFFFB309FFFF220AFFFF930AFFFF060BFFFF7C0BFFFFB5
:403D0000F50BFFFF6F0CFFFFEC0CFFFF6C0DFFFFED0DFFFF710EFFFFF70EFFFF800FFFFF0B10FFFF9810FFFF2811FFFFBA11FFFF4E12FFFFE412FFFF7D13FFFF1814FFFFD1
:403D4000B514FFFF5515FFFFF715FFFF9B16FFFF4117FFFFEA17FFFF9518FFFF4219FFFFF119FFFFA21AFFFF561BFFFF0C1CFFFFC41CFFFF7E1DFFFF3B1EFFFFFA1EFFFFC7
:403D8000BA1FFFFF7D20FFFF4221FFFF0A22FFFFD322FFFF9F23FFFF6C24FFFF3C25FFFF0E26FFFFE226FFFFB827FFFF9028FFFF6B29FFFF472AFFFF252BFFFF062CFFFF1C
:403DC000E82CFFFFCD2DFFFFB32EFFFF9C2FFFFF8630FFFF7331FFFF6132FFFF5233FFFF4534FFFF3935FFFF2F36FFFF2837FFFF2238FFFF1E39FFFF1C3AFFFF1D3BFFFFAD
:403E00001E3CFFFF223DFFFF283EFFFF303FFFFF3940FFFF4441FFFF5242FFFF6043FFFF7144FFFF8445FFFF9846FFFFAE47FFFFC648FFFFE049FFFFFC4AFFFF194CFFFFAC
:403E4000384DFFFF584EFFFF7B4FFFFF9F50FFFFC551FFFFEC52FFFF1554FFFF4055FFFF6C56FFFF9A57FFFFCA58FFFFFB59FFFF2E5BFFFF635CFFFF995DFFFFD15EFFFF96
:403E80000A60FFFF4461FFFF8162FFFFBE63FFFFFE64FFFF3E66FFFF8167FFFFC468FFFF0A6AFFFF506BFFFF986CFFFFE26DFFFF2D6FFFFF7970FFFFC771FFFF1673FFFF2D
:403EC0006674FFFFB875FFFF0B77FFFF5F78FFFFB579FFFF0C7BFFFF647CFFFFBE7DFFFF197FFFFF7580FFFFD281FFFF3083FFFF9084FFFFF185FFFF5387FFFFB688FFFF7D
:403F00001B8AFFFF808BFFFFE78CFFFF4F8EFFFFB78FFFFF2191FFFF8C92FFFFF893FFFF6595FFFFD396FFFF4398FFFFB399FFFF249BFFFF969CFFFF099EFFFF7D9FFFFFC2
:403F4000F2A0FFFF68A2FFFFDEA3FFFF56A5FFFFCFA6FFFF48A8FFFFC2A9FFFF3DABFFFFB9ACFFFF36AEFFFFB3AFFFFF31B1FFFFB0B2FFFF30B4FFFFB0B5FFFF32B7FFFF70
:403F8000B3B8FFFF36BAFFFFB9BBFFFF3DBDFFFFC2BEFFFF47C0FFFFCDC1FFFF53C3FFFFDAC4FFFF61C6FFFFE9C7FFFF72C9FFFFFBCAFFFF85CCFFFF0FCEFFFF9ACFFFFF21
:403FC00025D1FFFFB0D2FFFF3CD4FFFFC9D5FFFF56D7FFFFE3D8FFFF70DAFFFFFEDBFFFF8DDDFFFF1BDFFFFFAAE0FFFF39E2FFFFC9E3FFFF59E5FFFFE9E6FFFF79E8FFFF8D
:404000000AEAFFFF9AEBFFFF2BEDFFFFBCEEFFFF4EF0FFFFDFF1FFFF71F3FFFF02F5FFFF94F6FFFF26F8FFFFB8F9FFFF4AFBFFFFDCFCFFFF6EFEFFFF00FE000000FC00001C
:4040400000FA000000F8000000F6000000F4000000F2000000F0000000EE000000EC000000EA000000E8000000E6000000E4000000E2000000E0000000DE000000DC000090
:4040800000DA000000D8000000D6000000D4000000D2000000D0000000CE000000CC000000CA000000C8000000C6000000C4000000C2000000C0000000BE000000BC000050
:4040C00000BA000000B8000000B6000000B4000000B2000000B0000000AE000000AC000000AA000000A8000000A6000000A4000000A2000000A00000009E0000009C000010
:40410000009A00000098000000960000009400000092000000900000008E0000008C0000008A00000088000000860000008400000082000000800000007E0000007C0000CF
:40414000007A00000078000000760000007400000072000000700000006E0000006C0000006A00000068000000660000006400000062000000600000005E0000005C00008F
:40418000005A00000058000000560000005400000052000000500000004E0000004C0000004A00000048000000460000004400000042000000400000003E0000003C00004F
:4041C000003A00000038000000360000003400000032000000300000002E0000002C0000002A00000028000000260000002400000022000000200000001E0000001C00000F
:40420000001A00000018000000160000001400000012000000100000000E0000000C0000000A0000000800000006000000040000000200000000000025640D0A0000000028
:40424000656E640D0A00000000300F40000400400F400004030405060708090A0B0C0E0F101112131415161718191B1C1D1E1F2021222325262728292A2B2E2F3031323353
:4042800034350000301000001E0F0000041000000A0F0000041000000E100000041000000A0F00001E0F00001E0F00000E1000000A0F0000140F0000140F0000140F0000A2
:4042C00076120000901600006E1600006E1600006216000056150000561500005616000062160000561500005616000056150000621600005A1500005A1500005A1500004F
:40430000701800004300232D302B2000686C4C006566674546470030313233343536373839414243444546003031323334353637383961626364656600000000F8B5C0460C
:40434000F8BC08BC9E4670477901000041060000F8B5C046F8BC08BC9E4670475101000070430000C8000020880000008001000000000000FFFFFFFFD00200200000C05DA2
:4043800080BB000030000000006CDC0204040400000000000000000000000000000000000000000000000000000000000000000004430000000000000000000000000000F5
:4043C000000000000000000000000000000000000000000000000000000000000000000000000000000000000000000000000000E8000020000000000000000000000000B5
:40440000000000000000000000000000000000000000000000000000000000000000000000000000000000000000000000000000000000000000000000000000000000007C
:40444000000000000000000000000000000000000000000000000000000000000000000000000000000000000000000000000000000000000000000000000000000000003C
:4044800000000000000000000000000000000000000000000000000000000000000000000000000000000000000000000000000000000000000000000000000000000000FC
:4044C00000000000000000000000000000000000000000000000000000000000000000000000000000000000000000000000000000000000000000000000000000000000BC
:0200000490303A
:02000000669701
:0200000490402A
:200000000000000000000000000000000000000000000000000000000000000000000000E0
:0200000490501A
:0C000000000204C81193110104E0782AEA
:0200000490600A
:0100000001FE
:00000001FF